:020000040000FA
:020000001528C1
:080008009300030E0B193628CA
:100010008B182B28140E8300930E130E0900100862
:10002000452086001208850008008B138316030103
:1000300085008600061481010115011483128500D4
:10004000860081018B160B169001013092000F2063
:100050008B17000029288B10920D1208103C031DED
:1000600034280130920090010F200A280B11910AC8
:1000700011084D3C031D0A2891013E28900A1008E2
:100080000A3C031990010F200A2882078134F334B7
:1000900049346134333425340534F13401342134A6
:00000001FF
