:020000040000FA
:020000001028C6
:08000800A600030EA7000B196E
:1000100065208B185620270E8300A60E260E090099
:100020008501860103018316860083123230812008
:1000300002303A200E303A2028303A2006303A205A
:100040000C303A207A208B138316030186000614A5
:10005000810101150114831281018B160B16A30176
:10006000A5018B17000032287A20732023088920ED
:1000700048200800A200F039860086107D20220862
:10008000220EF039860086107D2032308120080053
:10009000A200F039860086147D202208220EF03955
:1000A000860086147D200530812008008B10A40A6C
:1000B0002408103C03195E2034200800A401250800
:1000C000013AA500A301810108000B11A80A280824
:1000D0004D3C031D0800A801A30A23080A3C03198C
:1000E000A301342008002408251C803E2518C03EAA
:1000F0003A20080001303A200800861500008611D9
:100100000800A000C730A100A10B8428A00B822802
:1001100008008207303431343234333434343534E7
:08012000363437343834393429
:02400E00FB3F76
:00000001FF
